:020000041000EA
:10000000002000082B0100100D0000008D010010E1
:1000100000000000000000000000000000000000E0
:100020000000000000000000000000008901001036
:10003000000000000000000089010010890100108C
:100040008901001089010010890100108901001048
:100050008901001089010010890100108901001038
:100060008901001089010010890100108901001028
:100070008901001089010010890100108901001018
:100080008901001089010010890100108901001008
:1000900089010010890100108901001089010010F8
:1000A00089010010890100108901001089010010E8
:1000B00089010010890100108901001089010010D8
:1000C00010B5064C2378002B07D1054B002B02D02E
:1000D000044800E000BF0123237010BDF8030008AE
:1000E00000000000DC150010044B10B5002B03D0FD
:1000F0000349044800E000BF10BDC04600000000F6
:10010000FC030008DC1500100230800803D0013029
:100110000238FCD1C046C0467047EFF3108072B67B
:10012000704780F3108870477047FFF7FDFF72B685
:100130000F4C104DAC4209DA21686268A368043B99
:1001400002DBC858D050FAE70C34F3E70A490B4AEF
:100150000020521A02DD043A8850FCDC08480949A4
:100160000860BFF34F8F00F03FFF00F0EFFEFEE7A7
:10017000E815001000160010F80300081406000827
:100180000000000808ED00E0FEE7FEE700B50420EF
:100190007146084202D0EFF3098001E0EFF30880D6
:1001A000043000F0D3FCFEE7014B18607047C046F6
:1001B00010060008044B1B681A00BA3212881B6A2A
:1001C0005043C0187047C046100600081D4B9842A7
:1001D0000FD010D840282FD005D8002830D01028B4
:1001E00028D019481EE0802828D080235B00984240
:1001F000F7D1144816E0154B984214D008D8A02324
:100200001B0698421CD0124B9842EAD1A0200BE06A
:10021000104B98420AD0104B984209D00F4B98428D
:10022000DFD10F487047A420C003FBE70D48F9E772
:100230000D48F7E70D48F5E70D48F3E70D48F1E7FE
:100240000020EFE706005200FF005200010000F01E
:10025000090000A0040000F0050000F0030000F019
:100260000100520002005200030052000100500041
:10027000020050000500520010B50020FFF79AFF61
:100280000A4B1C682300BC331B68C0180368002B92
:100290000ADB074B1868FFF799FF012263689A6031
:1002A0009A68002AFCD110BD0248FCE7100600083D
:1002B00014040008020050000D4B10B5186000280F
:1002C00004D0FE235B42038000234380094B1B685C
:1002D0001A0050321278002A08D051331B78002BB4
:1002E00004D002220449002000F0E0F810BDC0460E
:1002F00024040008100600084501000810B5024853
:10030000FFF7DAFF10BDC046B8030008064B1B68B4
:10031000BC331B68C3181B68002B03DA89B2416029
:10032000002070470148FCE71006000801008A0021
:100330000368002B04DA89B2C26081600020704734
:100340000048FCE701008A00064B1B68BC331B68B1
:10035000C3181B68002B03DAC36800200B607047CA
:100360000148FCE71006000801008A00024B1A68E9
:10037000002A00D11860704728040008F0B52C242A
:100380006043154C1F0024681D0A2018FF242540D7
:100390002740124C1B0C26680760346A4560836056
:1003A000BA36368877433F1907612F0080376D01D1
:1003B0007F01E71964190A4D47611F043B43641923
:1003C000236000238361059BC2610162002B01D081
:1003D0001B888381F0BDC046280400081006000871
:1003E00008100000F0B5836885B002AD2B80154B76
:1003F00002681B68066A1B8F476A9B18AB704368CC
:100400000095826AC16A040003930369C068FFF71C
:10041000B5FF00213B000A0000913000FFF7AEFF5E
:10042000216B280000F046FB0022AB5E002B06DBB0
:100430001F2213401E3A9A401300034A136005B06E
:10044000F0BDC0461006000800E100E0F7B52C251D
:10045000134C684326686943341825690193711861
:10046000002D19D08869002818D12E68002E15DAC1
:100470006768012426004B689E40B44613689EB20C
:1004800063461B041E431660EA608C61BC40019BFE
:10049000A4B24B62AC60FEBD0248FCE70248FAE73A
:1004A0002804000804028A0007028A002C23434320
:1004B00006480068C018C369934204D9036A002043
:1004C0009200D15070470248FCE7C046280400085B
:1004D0000A028A0073B5002642690400D5680196B5
:1004E0002B0CB34221D01B0413601368194B006915
:1004F0001B68BC331B68C3181B68B34215DA01A91B
:10050000FFF722FFB0420CD10198E26903681E0C8C
:10051000DBB29A4205D9226A9B009B58002B00D07F
:10052000984731002069FFF7F1FEADB2002D09D0E8
:1005300063691D6000251B68636AAB4205D098475C
:100540006562A56163691B6873BDA36A002BF8D05F
:100550009847F6E7100600082C2310B54343034ADA
:100560001068C018FFF7B6FF10BDC0462804000889
:10057000F8B5194B0F001B681A003332127882420B
:1005800027D9002925D01F250A68154021D1190037
:10059000BA310C88114E60431C6AD2080419290034
:1005A0007868346000F084FF29002000FFF7AEFE79
:1005B0003A0029003068FFF7BBFE041E07D1010096
:1005C0003068FFF7A3FE03002000002B00D0044892
:1005D000F8BD0448FCE7C046100600082C040008DB
:1005E00001018A0003018A0010B5002A0DD10029FB
:1005F00014D10B4B1A681300BA331B885843136A83
:10060000C018084B1860080010BD002906D0064B22
:10061000196019005A60FFF7ABFFF5E70348F3E7ED
:10062000100600082C040008BC03000803018A001F
:10063000F7B5184F04003B680191DE6833688342C8
:1006400026D90025A94202D1FFF767FD05003868C9
:100650000368002B1ADA1F22012322409340640909
:100660007268A4001419226813420DD09A432260C4
:1006700000240021FFF74AFE019B002B02D1280035
:10068000FFF74FFD2000FEBD034CF2E7034CF3E7FC
:10069000034CF7E72C0400080201880003018800DE
:1006A00004018A000A4B1B68DB681A6882420DD974
:1006B00059681F23420918401E3B8340920050583E
:1006C0001840431E9841034BC01870470248FCE78E
:1006D0002C0400080001880004018A00054B1B68F7
:1006E0001A0088321B6812689B181868000AC0B28A
:1006F0007047C04610060008044B1B681A00883279
:100700001B6812689B181868000E704710060008D6
:10071000024B18694007C00F7047C04600002740D1
:10072000A6220549D2008B580220DB439B0702D04A
:1007300001238858184070470000264010B5FFF785
:10074000EFFF0023022801D1014B1B68180010BDE8
:1007500034040008094A83009B18D022920098585C
:1007600007221040042807D1C022920098581F2366
:1007700003408020400018437047C04600002640D8
:1007800010B5FFF7E7FF03281CD005D8012816D0C5
:1007900023D9FFF7D3FF10BD1223FF33984213D0A4
:1007A0001423FF33984215D0033B984210D10C4AD2
:1007B0000C4BD358002B0BDA80200002EBE70A4BDE
:1007C0001868E8E7094BFBE7FFF7A2FF0028F3D121
:1007D0000020E0E7024A064BEBE70648DBE7C046AD
:1007E000000026400C050000300400088C040008BE
:1007F0003C05000000127A00B023154ADB00D358F4
:1008000010B59903DB01DB0F890BC371114B01603C
:10081000D3580F24D904DB01DB0D0381B123DB00A6
:10082000D358C90C818019002140817219092140D7
:10083000C172D9029B009B0F8373074BC90CD3581D
:1008400081815A05DB01520FDB0D8271038210BDDD
:1008500000002640840500008C05000010B5104BF8
:10086000421E1B683F331B78934216D97F221F24F8
:100870008030FF300B4B8000C3581A400A701A0CAE
:100880002240180A8A701A012040E2404870002075
:100890009B009B0FCA700B7110BD0348FCE7C0465C
:1008A000100600080000264001004A00F0B589B09B
:1008B00003AC14220021200000F0FAFD2000FFF715
:1008C0009BFFB0231A4ADB00D25800239A4203DA76
:1008D000A37B023B5A1E9341E57900266A1E95418F
:1008E0000135B34221D0A488B4421ED0039B30000E
:1008F0000193FFF745FF2A00330007003100200075
:1009000000F0C0FC0C0005003300019A31003800F3
:1009100000F0B8FCE6076A083243630880185941C2
:100920002A00230000F08EFC0600300009B0F0BD64
:1009300000002640F0B50026244B85B01B68070058
:100940003F331B78B3423ED0B0423CD083423AD3CF
:100950000522310002A800F0ABFD02A93800FFF724
:100960007DFF3B008033FF33194A9B009B58B34205
:1009700029DA02AB1B79022B25D002AB5C78B4429A
:1009800021D09D78B5421ED01B7838000193FFF727
:10099000F7FE2A00330007003100200000F072FC4F
:1009A0000C0005003300019A3100380000F06AFCA9
:1009B000E6076A0832436308801859412A00230079
:1009C00000F040FC0600300005B0F0BD1006000845
:1009D0000000264010B5041E04D1FFF767FF002871
:1009E00006D008E0064B1B683F331B78834203D2D6
:1009F0002000FFF7C5FE10BDFFF79CFFEFE7C046E4
:100A000010060008E02210B50124094B8000920076
:100A1000C018835880589B069B0F9C400F2318409A
:100A2000FFF7D8FF63081818210000F07FFB10BD06
:100A300000002640144B30B51A68072413002C33ED
:100A40001B781F2B15D883081D00A5432C1E0FD122
:100A500003342040A040814012689B002032D3180C
:100A60000A00FF2181401C6862401140614019600A
:100A700030BD802320401B06184380239B01126851
:100A8000C91889008850F3E710060008064B9A68D9
:100A90000300064810339B00824202D198589950B7
:100AA0007047034AD058FBE700ED00E00000000863
:100AB00000000010F8B506000D0000283AD0002311
:100AC000C05E002828DBB178FFF7B4FF0024FF22C6
:100AD000032794460023F05E716883B21F40FF0035
:100AE0006646BA4089013140D243B940002815DB3F
:100AF000114E83089B009B19C026B6009F593A40AF
:100B0000114399510D4B9A680D4B9A4202D129001D
:100B1000FFF7BCFF2000F8BD0A4CD8E70F26334092
:100B2000083B064E9B089B009B19DE69324011432F
:100B3000D961E7E7034CEDE700E100E000ED00E0FC
:100B40000000000801005600FEE7000002680A4BA2
:100B500010B51A6042685A6082689A60C268DA60AA
:100B600002691A6142695A6182699A61C269DA61ED
:100B7000FFF7EAFF10BDC046D8030008B0235B05AD
:100B80005A782120002A01D05878C0B27047B0238B
:100B90005B059A89002A02D0988980B2704780202C
:100BA0004000FBE77FB5274B86000D00F458042971
:100BB00001D0012927D100200FE0A3682B420BD1DF
:100BC000E36829001A685B6802920193039302A804
:100BD000236898471C4B1C606469002C0BD01B4B8E
:100BE0009842EAD1012DE8D1174B18481A68184BE2
:100BF0009A5104B070BD012DFBD1144B9842F3D033
:100C0000134B9C51F5E7022906D10F4B1B68181EA8
:100C1000EFD01C6903E01C006369002BFBD10020AE
:100C2000002CE6D0A3682B4209D1E36829001A689A
:100C30005B6802920193039302A823689847246992
:100C4000EEE7C0467804000874040008FF00420084
:100C5000600400081A4B1B68190088311A6809687B
:100C600051180968016219008C310968521812681C
:100C700042621A0046321278002A1FD09A68E03287
:100C80001268D2061AD5F222DB68D2019A580260A5
:100C9000F022D2019A5842600A4A9A5882600A4A5F
:100CA0009A58C260094A9A580261094A9A584261A0
:100CB000084A9A588261084A9B58C3617047C046E7
:100CC0001006000804780000087800000C78000086
:100CD0001078000014780000187800001A4B1B6888
:100CE0001A008832196812688A18016A11601A009D
:100CF0008C32196812688A18416A11601A004632EB
:100D00001278002A1ED09A68E0321268D20619D5ED
:100D1000F0224168DB68D201995081680B4A9950F2
:100D2000C1680B4A995001690A4A995041690A4AB7
:100D300099508169094A9950C169094A99500168D5
:100D4000E83299507047C046100600080478000049
:100D5000087800000C78000010780000147800007B
:100D600018780000F7B50700FFF708FF664D06008A
:100D70006B68002B00D07DE0FFF7CFF96B68009027
:100D8000002B00D089E0614C22681300BA33198827
:100D900007234B43126A9B181A68002AFCDADB68A7
:100DA000DA0021D51B0F1B0759480193FFF752FFAB
:100DB0005849212E00D075E0226890201300883316
:100DC0001C68136800011C1923680B40034323604F
:100DD00013008C3312681B68D3181A68114008433B
:100DE00018604B4B019A13438022484E920531689C
:100DF00013430A00BA321088072200244243096ACA
:100E00005218D36054605368FFF7C1FE80235B0023
:100E100098425DD1380000F05FFB32681300BA33AE
:100E2000198807234B43126A9B181A68002AFCDAB8
:100E3000DF68FB0003D538010009FFF74FFF364B91
:100E400032681F401300BA33198807234B43126AD4
:100E500000989B180022DF605A60FFF762F9002CAF
:100E60000FD16B68002B03D008210120FFF79AFEF9
:100E70002000FEBD01210800FFF794FE041E00D1F2
:100E80007AE76B68002B03D002210120FFF78AFE6E
:100E9000224B9C42ECD0224CEAE704210120FFF7D0
:100EA00081FE70E720688022030088331C68036895
:100EB00052001C1923680B401343236003008C333A
:100EC00000681B68C318186801400A431A6088E765
:100ED00033681A00BC32196A126852181168002966
:100EE00010DBBA331B889A181368002B0ADB042323
:100EF0000C4A11690B431361012F01D030BF8CE7FD
:100F000020BF8AE7054C88E778040008100600082F
:100F100038040008FF00FFFFFFFFFFDF050042006D
:100F2000FF00420000ED00E0C02280200649520090
:100F30008B58C0059B009B0803438B508023885827
:100F40001B0603438B5070470000264010B562B665
:100F5000034800F0C1F80020FFF704FFFBE7C0469C
:100F60000020001010B50020FFF7F6FA10BD704702
:100F700010B50020FFF746FD041E25D0134B186066
:100F8000FFF7BAFB411C200000F0D0F8104B040022
:100F90001860FFF7A3FB411C200000F0C7F80D4BC1
:100FA000441E18600C49200000F0C0F8FA210B4BD9
:100FB000013018708900200000F0B8F8084B0130AB
:100FC0001860084BC003186010BDC046C40000087C
:100FD000C8000008C000000840420F00D40000080C
:100FE000D0000008CC00000810B52148FFF7DCF85D
:100FF000B022E02130201F4CD200A35889005B00B2
:101000005B08A35063588343635080235B04A35061
:10101000194B1A4AE250A02204339201E250FF22F7
:10102000174BE250FFF780FFC02201215200A35866
:101030008B43A350FFF79BFFFFF79AFF114B032051
:101040001A681300BA33198807234B43126A8021A8
:101050009B180022DA605A600B4AFFF7C5FA0B486A
:10106000FFF784F90A48FFF7BDF9FFF747F910BD0C
:10107000E814001000002640840500000100020072
:101080008C05000010060008C40300089004000846
:10109000A8150010024BD86F032318407047C046B4
:1010A0000400214010B5FFF738F80749074ACB6F15
:1010B0001A40074B1343CB67102306490A681A42AC
:1010C000FCD0FFF72EF810BD04002140FCFF00000B
:1010D0000100FA058800214070B50F4C0600FFF7AB
:1010E0001CF8E36F0500DB439B0701D1FFF7DAFF34
:1010F000B0230A4A9B00D650E36F094A09491A40B7
:10110000094B1343E36710230A681A42FCD02800F6
:10111000FFF707F870BDC0460400214000002140E1
:10112000FCFF0000880021400300FA05002243086C
:101130008B4274D303098B425FD3030A8B4244D39F
:10114000030B8B4228D3030C8B420DD3FF220902E1
:1011500012BA030C8B4202D31212090265D0030BA0
:101160008B4219D300E0090AC30B8B4201D3CB0396
:10117000C01A5241830B8B4201D38B03C01A5241D8
:10118000430B8B4201D34B03C01A5241030B8B42DA
:1011900001D30B03C01A5241C30A8B4201D3CB02C5
:1011A000C01A5241830A8B4201D38B02C01A5241AA
:1011B000430A8B4201D34B02C01A5241030A8B42AD
:1011C00001D30B02C01A5241CDD2C3098B4201D3C5
:1011D000CB01C01A524183098B4201D38B01C01A43
:1011E000524143098B4201D34B01C01A52410309BA
:1011F0008B4201D30B01C01A5241C3088B4201D369
:10120000CB00C01A524183088B4201D38B00C01A15
:10121000524143088B4201D34B00C01A5241411A3C
:1012200000D20146524110467047FFE701B5002049
:1012300000F006F802BDC0460029F7D076E77047F7
:101240007047C046002B11D1002A0FD1002900D1D0
:10125000002802D00021C943081C07B4024802A19B
:101260004018029003BDC046D9FFFFFF03B4684693
:1012700001B5029800F030F8019B9E4602B00CBC0C
:101280007047C046F0B5CE46474615042D0C2E00DB
:1012900080B50704140C3F0C9946030C7E435D4354
:1012A000674363437F19340CE4199C46A54203D974
:1012B00080235B029846C4444B4643435143250C6C
:1012C00036046544360C2404A4195B19591820000F
:1012D0000CBC90469946F0BDF0B54F464646D64602
:1012E000C0B5040082B00D00914698468B422FD8BD
:1012F0002CD04146484600F0CFF8290006002000D7
:1013000000F0CAF8331A9C46203B9A4600D576E096
:101310004B46524693401F004B46624693401E0088
:10132000AF4228D825D05346A41BBD41002B00DA7C
:101330007BE0002200230092019301235246934058
:101340000193012362469340009318E08242D0D972
:1013500000220023009201930A9B002B01D01C6005
:101360005D600098019902B01CBC90469946A24667
:10137000F0BDA342D7D90022002300920193634617
:10138000002BE9D0FB079846414672080A437B08C8
:1013900066460EE0AB4201D1A2420CD8A41A9D4190
:1013A000012024196D410021013E24184D41002ED9
:1013B00006D0AB42EED9013E24196D41002EF8D182
:1013C00000980199534600196941002B23DB2B003B
:1013D0005246D3402A006446E2401C0053461500A2
:1013E000002B2DDB26005746BE4033002600674603
:1013F000BE403200801A994100900191ACE76246EC
:1014000020239B1A4A46DA406146130042468A402E
:1014100017001F4380E7624620239B1A2A00664676
:101420009A402300F3401343D4E76246202300216F
:101430009B1A0022009101920122DA40019280E77A
:101440002023624626009B1ADE402F00B0466646E7
:10145000B74046463B003343C8E7C0461C21012342
:101460001B04984201D3000C10391B0A984201D387
:10147000000A08391B09984201D30009043902A265
:10148000105C40187047C0460403020201010101CC
:10149000000000000000000010B5002903D1FFF794
:1014A000DDFF203002E0081CFFF7D8FF10BDC0466A
:1014B00003001218934200D1704719700133F9E705
:1014C000F8B5C046F8BC08BC9E467047F8B5C046A3
:1014D000F8BC08BC9E46704701B40248844601BC73
:1014E000604700BFA1020008000021400000254025
:1014F0000000014000003440000024400000314062
:101500000000324000001F41000023400000114055
:1015100000001D411010101010101010101010803D
:1015200019005500F000050105013B04101C0101E4
:101530000FC000000004000001010101011D3A5725
:10154000789600000000000820001012080000003B
:10155000001F00000010000F002000023F06080ED0
:1015600000080009000A000B24282C303400000079
:10157000100000009000000088000000080000003B
:101580008000000004F0000000F0000040020000B5
:101590002005A000D00100018001A00140019001C0
:1015A000B001200010000000030000000100000056
:1015B00001000000000000000503600004000000BE
:1015C00001000000000000000100000006046000AF
:1015D00008000000F0050008650F00100000000082
:1015E000F8FCFF7F01000000000000100000000870
:1015F000C000000008160010C0000008F80200003B
:10160000F80300081C02000000093D0000127A00E7
:1016100000093D000000D007A00F000004000000FA
:10162000E9000010C100001080B230B5C00020D029
:10163000104B07221C682300BA331B885A43236AC5
:10164000D31819680029FCDA3E210B4B06251960D6
:101650000A4B0B491960A3210A4BC9005D500A4986
:1016600058505858206A1218002050605A58002AC2
:10167000FCDA30BD100600080401264008012640AF
:101680001E1F0000000026401C05000010B5437816
:10169000FF2B11D100F0FCF80400032000F020F92A
:1016A000C3685A680123116819431160116819420F
:1016B000FCD1200000F004F910BDF7B50090002027
:1016C000019100F00DF93F4D06002B681A005033D0
:1016D000BC3214681B780419002B5AD000F0C8F8EB
:1016E000070003281BD000F0D3F8374A374B05001A
:1016F000D358002B3EDA364A0121300000F0E8F8DA
:10170000002837D10198FFF78FFF009B002B3ED0B8
:101710002368002BFCDB00F0CBF804002BE0062054
:1017200000F0DEF82B68BC331B68C0180368002B80
:1017300002DA284C2000FEBD002000F0D9F8264B2C
:101740009842F6D00023254A19001268012000F0C3
:1017500097F80025A842ECD1002000F0C9F81E4AF5
:101760001F4B904203D09D42E3D00135F4E79D42E8
:10177000B9D1DEE7174C032F05D10121002000F07D
:101780008FF80028F9D1280000F09AF8D2E7154C1C
:10179000F1E700F07DF80E4A05000121300000F06D
:1017A00097F8002809D1009B002B08D02368002B54
:1017B000FCDB00F07DF80400E5E7064CE3E7094CAC
:1017C000E1E7C04610060008000026401C050000A6
:1017D00014040008050052000101880024040008D8
:1017E000F049020001005000184BF7B51B68184A79
:1017F0005C68042311690B431361012824D030BFB6
:101800002300FC331B69002B1DD1A320114B12496F
:10181000124AC0000F681E5815680195104D0D60E2
:1018200006251D503E2010600E483E351D501D58A7
:10183000002DFCDA0C48FC3420610F60A321C900A4
:101840005E50019B1360F7BD20BFD9E7100600086A
:1018500000ED00E00000264008012640040126407B
:101860001E1F00001C050000AAAAAAAA0000000072
:1018700001B40248844601BC604700BF95100010C7
:1018800001B40248844601BC604700BF4D0400100B
:1018900001B40248844601BC604700BF1B01001030
:1018A00001B40248844601BC604700BF3106001005
:1018B00001B40248844601BC604700BF79020010B1
:1018C00001B40248844601BC604700BF23010010F8
:1018D00001B40248844601BC604700BF31030010D8
:1018E00001B40248844601BC604700BFB501001046
:1018F00001B40248844601BC604700BFA506001041
:1019000000000000000000000000000000000000D7
:0C191000000000000000000000000000CB
:1020000000780408D12200100D00000045230010C4
:102010004523001045230010452300100000000058
:10202000000000000000000000000000412300103C
:102030004123001000000000412300104123001044
:1020400041230010412300104123001041230010C0
:1020500041230010412300104123001041230010B0
:1020600041230010412300104123001041230010A0
:102070004123001041230010412300104123001090
:1022800041230010412300104123001010B5054CDC
:10229000237833B9044B13B10448AFF30080012312
:1022A000237010BDFC29000800000000B479011063
:1022B00008B5034B1BB103490348AFF3008008BDC9
:1022C00000000000002A0008B47901107047704730
:1022D000FFF7FCFF72B6144C144DAC4209DA2168CA
:1022E0006268A368043BA2BFC858D050FAE70C3418
:1022F000F3E70F490F4A00209142BCBF41F8040B9D
:10230000FAE70D480D490860BFF34F8F00F00CF954
:1023100000F0EEF8FFF7DBFF0FF098FE00F0A8FAF0
:102320000FF080FEFEE70000C0790110D87901109F
:10233000FC290008F0CF01080020000808ED00E0AB
:10234000FEE7FEE700B504207146084202D0EFF335
:10235000098001E0EFF30880043006F07DFCFEE721
:1023600008B518B101200AF06FFF08BD00200AF07F
:102370006BFFFAE770B582B00C4615461E46022088
:102380000AF062FFDDE90623CDE900233246294643
:1023900020460BF0F7F820B900200AF055FF02B0F4
:1023A00070BD0BF025F9F7E710207047F0B583B04A
:1023B0000DF002FE0AF014FF00200AF045FF1C4851
:1023C0000AF084FE4FF4C0321A4900200AF050FE91
:1023D000194900200AF066FE072140F605300DF08D
:1023E00001FE00B1FEE7154F154E164C164D174B6A
:1023F0000193174B00933B463246214628460AF08C
:1024000061FA144B2246394630460BF0F7FA0AF0CF
:10241000ABFF00231A46294618460AF0CBFF0AF004
:10242000D9FFA36900210C48984703B0F0BD00BF55
:1024300061230010182A0008786C01107C23000822
:102440004C2300082823000818AA0108806C0110FA
:102450007C6C0110582300087523001008B50DF09E
:10246000B6FD0AF0CDFF0AF051FD0AF0C9FE08BD25
:1024700008B5012003F0C8FB08BD704710B5002067
:1024800006F0B8FA00B910BD0446114B186005F00B
:10249000D7FC0130B4FBF0F00E4B186005F0E8FCFF
:1024A0000130B4FBF0F40C4B1C60013C0B4BA3FB64
:1024B00004239B0C01330A4A13700A4BA3FB042329
:1024C0009B090133084A1360DB03084A1360DAE70B
:1024D000C4220008C8220008C022000883DE1B4373
:1024E000D4220008D34D6210D0220008CC2200086C
:1024F00008B50A4802F098FDFFF7BFFFFFF7BEFFDF
:1025000000221146032003F0D5FB054803F014FA1E
:10251000044803F069FA02F0FFFF08BD847301105C
:1025200070AB0108206E011008B500F0B2F9074A3F
:10253000D2F8883043F47003C2F88830BFF34F8F6D
:10254000BFF36F8F00F0A9F908BD00BF00ED00E0F8
:1025500008B500F063F800F005F800F019F800F095
:1025600023F808BD08B50F21012005F06FFB40F2EC
:10257000E7320F21012005F0DDF90F21012005F0E0
:1025800023FB024800F082FD08BD00BF546E01101D
:1025900008B50F2201213A2005F0DAFA014800F0CF
:1025A00075FD08BD8C6E011010B5124C124A002149
:1025B000204603F0C7F8114800F068FD104A0121D9
:1025C000204603F0BFF80F4800F060FDA4F58064DA
:1025D0000D4A0621204603F0B5F80C4800F056FDE0
:1025E0000B4A0721204603F0ADF80A4800F04EFDE3
:1025F00010BD00BF00073240006F0110346F0110A2
:10260000386F01106C6F0110C86E0110FC6E011064
:10261000906E0110C46E0110FEE7000010B5962107
:10262000002006F06BFB06F0D7FAD0B1052006F0CB
:1026300025FF06F063FE06F0B7FF06F0A1FF0021BC
:10264000084605F099FC002005F004FC012005F087
:10265000E9FB002005F076FB5A4B1B6893F83F40DE
:102660000DE006F0A9FA05F0CFFC05F0C3FC01204F
:1026700005F0DEFCDAE7204605F0FEFE013C002C0A
:10268000F9D10021012005F007FD002005F062FCD2
:1026900000287ED005F0B4FD0021084605F0FCFCC2
:1026A0000021084605F036FC002005F0ABFB0020B9
:1026B00005F0D0FB002005F0B5FB002005F042FB43
:1026C0000021012005F0E8FC0021084605F0E4FCAB
:1026D0000021022005F0E0FC0021032005F0DCFCD5
:1026E0000021042005F0D8FC374805F0A3FD0028A0
:1026F0005BD1364805F04EFE002859D1002108462E
:1027000005F008FC0021084605F036FC30490120A0
:1027100005F0D8FE00284ED142F21071012005F0DC
:102720005FFF00284AD10121032005F0F3FB0021BF
:10273000032005F021FC032005F0A6FB05F058FB63
:10274000002005F029FB002005F03CFB05F046FBCE
:10275000002006F06DFF012005F00EFB05F04AFC9D
:10276000012005F065FC6421002006F0C7FAFFF7A0
:1027700085FE184800F08AFC174800F087FC1748CF
:1027800000F084FC164800F081FC164800F07EFC46
:1027900010BD05F0AFFC40F2111398427FF47AAF00
:1027A0000121002005F0B6FB74E70420FFF734FF99
:1027B0000420FFF731FF0320FFF72EFF0320FFF770
:1027C0002BFF00BF40AE0108706F0110400D0300E9
:1027D000986F0110846F0110886F01108C6F0110C9
:1027E000906F0110946F011008B5044806F008FCC2
:1027F00008B1002008BD0248FCE700BFD82200084D
:102800000000020610B582B000F03EFC0446A8B1FC
:10281000C4B1FFF79DFEDCB1144A1368ADF8043073
:102820001B0C8DF806305368ADF800301B0C8DF88A
:1028300002308CB1ACB1204602B010BD02F018FAE3
:102840000446E5E740F6E441002002F059FAE0E7EB
:10285000FFF7CAFF0446DFE701A800F017FC0446B3
:10286000E8E7684600F012FC0446E4E7A06F0110B8
:1028700008B5FFF79BFDFFF7F1FDFCE70000000046
:102880000230800803D001300238FCD100BF00BF05
:102890007047EFF3108072B6704780F3108870476E
:1028A00001BE0148704700BF02020204024B0B60E8
:1028B0000723136000207047F422000808B5407811
:1028C00006F098F808BD000038B5054614468A425F
:1028D00094BF00230123834209D080F001038A4280
:1028E0002CBF002101218B4201D04DB138BD06F033
:1028F000FFFC0549A1FB0431890C06F0FFF9F4E760
:10290000FFF7BCFDF2E700BF83DE1B432DE9F0417A
:1029100004460A78A2F10D03DBB2012B04D90F2A79
:102920002FD14E78013600E04E78002005F044FBB0
:102930000746002005F00EFB06F03CF820FA07F8E9
:10294000304606F037F820FA07F763786BB1F1B23A
:10295000607805F0DFFA054663789BB958B93A46C6
:1029600041460020FFF7B0FF0CE03A464146012007
:10297000FFF7AAFFEBE7424639460020FFF7A4FF26
:1029800000E0024D2846BDE8F08100BF01020204CC
:10299000F8B505460139072935D8DFE801F00426E6
:1029A000340634343424002600E00226002005F0EA
:1029B00003FB0746002005F0CDFA05F0FBFF20FAE7
:1029C00007F720FA06F46B788BB13146687805F08A
:1029D000D3FA06466B78BBB978B92246394600204F
:1029E000FFF772FF10E00326E0E70126DEE722464C
:1029F00039460120FFF768FFE7E73A462146002005
:102A0000FFF762FF00E0014E3046F8BD000202040D
:102A100008B519B1407805F037FA08BD407805F0DF
:102A20005DFAFAE708B5407805F046FA08BD0000FF
:102A300038B51C46049D012303FA02F200EB510352
:102A4000B3FBF1F32B60934200D92A6074B12A687A
:102A5000B0FBF2F2207802F02FFA0028B8BF404213
:102A600034B16368834205D3002038BD0020F7E706
:102A70000020FAE70048F8E70002020470B584B0CD
:102A800004460D46164605F0C5FF237813F0020FE5
:102A90000CD0022B1FD01D2203AB009333462946D6
:102AA0004001FFF7C5FFC0B104B070BD8BB908226B
:102AB00003AB009333462946FFF7BAFF0028F3D152
:102AC0002078039A013A617800F0030004F032FFA5
:102AD000EAE71022ECE71522DEE7039B5A0920788B
:102AE00003F01F03013A617800F0030004F086FF51
:102AF000DAE708B50378417803F0030005F0A3FF97
:102B000008BD08B531B10378417803F0030005F042
:102B10005BF808BD0378417803F0030005F096F8F0
:102B2000F7E708B50378417803F0030005F0C0F833
:102B300008BD000000487047F07101102DE9F04118
:102B400082B007460D469046084602F0E7F9C6B245
:102B5000002401E00134E4B2B44213D205238DF81D
:102B600004308DF805508DF8064001A800F08EFA6B
:102B700003460028EED13D707C700122BA70C7F880
:102B8000048000E0024B184602B0BDE8F08100BFAF
:102B9000020D020430B583B00C46054678B184B10D
:102BA00005238DF8043023788DF8053063788DF88F
:102BB000063001A800F06AFA28B103B030BD01BEAA
:102BC000EDE701BEECE7226863682A606B600123D1
:102BD000AB70F2E708B5034648B11A78122A08D05C
:102BE000032A0AD95A6812681846904708BD01BEE0
:102BF000F3E71846FFF716FFF8E71846FFF791FFCF
:102C0000F4E710B5034648B11878122808D0032815
:102C10000AD9586844681846A04710BD01BEF3E7BA
:102C20001846FFF7F5FEF8E71846FFF76AFFF4E7E6
:102C300010B5044668B12046FFF7CCFF98B1237861
:102C4000122B08D0032B0AD963689B68204698474B
:102C50000AE001BEEFE72046FFF730FE04E0204621
:102C6000FFF747FF00E0002010BD10B5034648B154
:102C70001878122808D003280AD95868C46818465A
:102C8000A04710BD01BEF3E71846FFF709FEF8E7BD
:102C90001846FFF7F3FEF4E710B582B0044690B192
:102CA000A37803B901BE05238DF8043023788DF88D
:102CB000053063788DF8063001A800F02BFA002368
:102CC000A37002B010BD01BEEAE708281CD8DFE8F7
:102CD00000F00923051E0B0D0F1113000A20012916
:102CE00017D07047082070470C20F8E70D20F6E752
:102CF0000E20F4E70F20F2E74B1EDBB2012B01D9C7
:102D00000820ECE70E20EAE701BE0820E7E70B20E9
:102D1000E5E700F0070070470020E2E72DE9F04109
:102D2000EFF30583103B1BB24FF0010808FA03F8DC
:102D300030E0224B1B689E693AE0022123686068FC
:102D40009847A468C4B1257B05F00705294630469D
:102D500002F0D1FC0028F4D02946304602F0A0FD54
:102D6000C1B24B1E012BE9D92946304602F04EFC78
:102D70000028E2D00121E1E7072C06D821463046A1
:102D800002F09CFC0134E4B2F6E7012303FA07F7F2
:102D900028EA0708B8F1000F0ED0B8FA88F7C7F193
:102DA0001F070E2FC5D8054B1B689E6906EBC7167B
:102DB000034B53F82740C5E7BDE8F08140AE01085A
:102DC000F8AC01082DE9F04387B0884617461E4647
:102DD0000B238DF808304FEAD0098DF8099000F0E8
:102DE00007048DF80A40029BADF814301B0C8DF8D7
:102DF0001630059DADF810502D0C8DF81250049D25
:102E0000ADF80C502D0C8DF80E5003A800F03EF9D3
:102E1000054618B1284607B0BDE8F083414638465C
:102E2000FFF753FF0246B9F10E0F0BD8074B1B6893
:102E3000986900EBC910002300933346214602F045
:102E4000ABFBE7E7014B1B689869F4E740AE01086C
:102E500038B504460D46FFF71CFDE1080E4A02EBAB
:102E6000810201E003F1080213682BB193F80CC052
:102E7000A445F7D19B68136045B12B684BB12C7307
:102E8000054B53F82120AA6043F82150FFF705FDB8
:102E900038BD01BEF3E700BFF8AC01082DE9F041F1
:102EA00082B00446884616461F46C50877283AD899
:102EB000274B1B68986900EBC51004F007042146F6
:102EC00002F0FCFB0E2D32D8214B1B68986900EBF9
:102ED000C5104246214602F017FC0E2D2BD81C4B84
:102EE0001B68986900EBC5103A46214602F0F0FBDA
:102EF0002CB26A09174B53F8223023FA05F515F066
:102F0000010F1CD1ADF8004001961349684605F049
:102F1000FDFD6209012303FA04F40E4B43F822403D
:102F200002B0BDE8F0810A4B1B689869C5E7084B01
:102F30001B689869CDE7064B1B689869D4E7760152
:102F4000F6B204F1604404F5614484F80063E7E7F5
:102F500040AE010800E100E01D2D001070B504280E
:102F60000DD00D46114602463B4C34F810E0441C8F
:102F70001D2C07D8E4B2384E36F8144004E00D2575
:102F80000520F0E740F20B144FF0010C0CFA02FCA4
:102F9000324A0CEA02023AB9AE44A3F800E01B88B8
:102FA000A34257D2002070BDC21E182A32D8DFE8D3
:102FB00002F00D313431310F2531293131313131C8
:102FC0002B312D3131313131312F2700244A00E0AE
:102FD000244A1C80002AE2D00338182835D8DFE8BC
:102FE00000F01E343734341E2E343034343434344C
:102FF0001E341E343434343434321E001A4AE8E7A6
:103000001A4AE6E71A4AE4E71A4AE2E71A4AE0E708
:103010001A4ADEE701BE0022DBE7194AD9E701269A
:10302000B542BCD2505D704411FA80F11980691C20
:10303000B142B4DA2A4454787444A4B2AFE7022609
:10304000EEE71026ECE70226EAE701BE0026E7E7F6
:103050001A26E5E70B48A6E778720110280B0A0C40
:10306000307201105072011054720110747201100C
:1030700058720110687201106C72011070720110A8
:1030800034720110000D020400207047F0B583B0C7
:1030900004460027FFF7FDFB06460DF10603A27864
:1030A00061782078FFF75AFF054668B9BDF8063009
:1030B000C3F3C70203F007031449895C012202FA33
:1030C00003F3194218BF174605B9EFB92DB13046C1
:1030D000FFF7E3FB284603B0F0BD0DF10603A2782D
:1030E00061782078FFF73AFF05460028EFD1BDF858
:1030F0000630C3F3C70103F00703044801229A40D6
:10310000435C13434354E2E7014DE0E734AD01086B
:10311000010D020430B583B00446FFF7BAFB054643
:103120000DF10603A27861782078FFF717FF0246B9
:1031300060B9BDF80630C3F3C70003F00703074CBE
:1031400001219940235C23EA0103235402B101BE0B
:103150002846FFF7A2FB03B030BD00BF34AD010825
:103160002DE9F04782B00446884617469A461E234A
:103170000371FF230372C371002505752B460D22D1
:103180004049404600F054FC06462B460D223E497D
:10319000384600F04DFC002E6AD0054600286AD063
:1031A000327803789A4226D00023002B66D017236A
:1031B0008DF804302B788DF805306B788DF806305B
:1031C00001A8FFF763FF8146E8B1B9F1000F2ED0E7
:1031D000B9F1000F08D1BAF1000F31D004F10C039E
:1031E0009AE8030083E80300B9F1000F35D04846A0
:1031F00002B0BDE8F087727843789A4201D000238C
:10320000D3E70123D1E79DF80520204B53F8223066
:103210002360019BA3801B0CA3710C21304601F09D
:10322000D6FD81460028D0D184F80780CDE70C2157
:10323000284601F0CCFD81460028C9D12772C7E796
:1032400001231A46211D04F10C0001F085FE814680
:10325000B0FA80F040092075C6E700230C4A01212E
:10326000204600F057FB0028C1D1DFF82890BEE7C8
:10327000DFF82490BBE7DFF82090B8E7DFF818907C
:10328000B5E700BFDC6F0110A86F0110C872011014
:10329000A0860100010A0204000A020470B582B08F
:1032A0000446036863B10023A4F88830224652F82C
:1032B000180B03F01BFA054620B1284602B070BD7A
:1032C00001BEF0E7154A2146607900F0F9FB22685B
:1032D000136843F0004313600023C4F88C30C4F833
:1032E0009030C4F8843063790D4E36F91330ADF860
:1032F0000030052301930B49684605F007FC63790C
:1033000036F91330002BD8DB03F01F015B090122D3
:103310008A40054941F82320CFE700BF7B330010E6
:10332000EC7201102D33001000E100E038B500F020
:10333000E3FA0446054655F8180B294603F041FF09
:10334000B4F8883003B938BD2946206803F06EFC14
:1033500010F4803FF7D1B4F88830032B03D000235A
:10336000A4F88830EFE70123A4F88830214651F80B
:10337000640B2A4603F05CFCE5E700B583B00B461E
:1033800050F8181B00910190022B05D0042B0BD094
:10339000012003B05DF804FB1146684603F094FA7F
:1033A000B0FA80F04009F4E71146684603F0EEFAFF
:1033B000B0FA80F04009ECE710B5044688B1206807
:1033C00040B104F1180103F073FA206803F04AFADF
:1033D0000023236023791E2B05D194F8943023B366
:1033E00010BD01BEEBE700221146607900F068FBDA
:1033F0006279154B33F91230002B0CDB03F01F01FF
:103400005B0901228A402033104941F82320BFF391
:103410004F8FBFF36F8F94F8943013B11E23237135
:10342000DBE7201DFFF776FEF8E7E01D01F0AAFCC0
:1034300004F1080001F0A6FC237D002BD0D004F19C
:103440000C00FFF729FCCBE7EC72011000E100E073
:10345000F8B50D4616461F46044688B1002184F88B
:103460009410982220460EF023FE3B463246294611
:103470002046FFF775FE054620B14DB92846F8BD38
:1034800001BEEBE704492046FFF708FF0546F4E7D5
:103490002046FFF791FFF1E7B4720110F0B587B055
:1034A0000C46074678B384B33E4656F8180B3146AF
:1034B00003F0FEF90DF1040C174D0FCDACE80F0031
:1034C0002B68CCF8003023780BB301238DF804303F
:1034D000A3788DF80730237813B1FE238DF80830D8
:1034E000237862680121384600F014FA88B1324628
:1034F00001A9386803F0FAF83A68136843F000430A
:10350000136007B0F0BD01BECDE701BECCE70223DA
:10351000DCE70248F5E700BFB4720110010A0204BB
:103520002DE9F04383B006460F4615461C46DDF8EC
:1035300028809DF82C9000F0BDFA002837D1F3695F
:10354000B3F1805F11D0334653F8180B0093434614
:103550000022394603F074FC07468FB1B9F1000F21
:103560001ED1384603B0BDE8F083334653F8180B3C
:10357000009343460022394603F0FCFB0746ECE784
:10358000002CEBD0334653F8180B4246297803F051
:103590002BFD07460028E1D1013CA4B20135EFE73D
:1035A000324652F8180B414603F0A6FCD9E7014F0A
:1035B000D7E700BF031902042DE9F04782B00646A1
:1035C000884615461C460A9F9DF82C9000F072FA1A
:1035D000002842D1F369B3F1805F13D0334653F82A
:1035E000180B00933B460122414603F029FC82461A
:1035F000BAF1000F27D0B9F1000F27D1504602B021
:10360000BDE8F087334653F8180B00933B46012280
:10361000414603F0AFFB8246EAE7334653F8180B06
:1036200000933B462A46414603F092FC824600281E
:10363000E1D1013CA4B20135002CDCD0012CECD14D
:103640004FF00108E9E74FF00008F5E7324652F87D
:10365000180B394603F050FCD0E7DFF804A0CDE7A3
:10366000031902042DE9F04784B007468A469146C3
:1036700098460C9DBDF834400E9E00F01BFA90BB9E
:10368000B8F1010F14D0B8F1020F2FD14FEA19236E
:103690008DF80C308DF80D90002301930096434671
:1036A00003AA51463846FFF73BFF804630B116E08B
:1036B0008DF80C90F0E7013CA4B201354CB13B46CB
:1036C00053F8180B3246297803F08EFC8046002808
:1036D000F1D03A4652F8180B314603F00DFC404643
:1036E00004B0BDE8F087DFF80C80F8E7DFF8088069
:1036F000F5E700BF03190204020A0204F0B585B021
:1037000006460F4615461C4600F0D4F920BB012C96
:1037100013D0022C22D12B0A8DF80C308DF80D50CD
:10372000002301930C9B0093234603AA394630469D
:10373000FFF7F6FE20B105B0F0BD8DF80C50EFE7B5
:10374000012301930C9B0093BDF82C300A9A394653
:103750003046FFF731FFEEE70148ECE70148EAE7C2
:1037600003190204020A020470B582B00D46837880
:10377000772B16D8DA08134909688E6906EBC2164A
:10378000C27803F00704009201232A4621463046FE
:1037900001F002FF0A2D08D00B2D0CD0002002B042
:1037A00070BD084A12689669EAE701222146304650
:1037B00001F034FFF2E700222146304601F02EFFEF
:1037C000ECE700BF40AE010810B582B00146772893
:1037D00010D8C308094A1268906900EBC31000248E
:1037E00000940123082201F0070101F0D5FE2046D4
:1037F00002B010BD014B1B689869F0E740AE0108AC
:1038000012381E2821D8DFE800F01E2020202020BA
:1038100020202020202020202020202020202020A8
:10382000201023121416181A1C00002070470220C2
:10383000704703207047042070470520704706201A
:103840007047072070470820704701BE002070476E
:103850000120704738B50346084850F8234008480F
:1038600050F8235044B12DB1002318460BB920461F
:10387000A84738BD0123F8E70123F6E77CAD01082E
:1038800058AD01082DE9F04105460F46084601F004
:10389000FAFA064600244FF0010817E002222946F2
:1038A0003046FFF7D7FF0136F6B2B442F6D8022F02
:1038B0001AD0082F18D0012F19D1B8F1000F16D047
:1038C0000C4B01221A7012E00134E4B2082CEED83D
:1038D000324629462046FFF7BDFF80460028F3D137
:1038E000012FF1D10026E0E7024B00221A7040467A
:1038F000BDE8F08156AD010808B5EFF3058010383A
:1039000000B2FFF77DFF024B53F8200008BD00BF57
:103910007CAD01082DE9F047844614461E460A4650
:1039200041B3076842B39CF8050042B30CF10C05A3
:1039300042B39CF81480002C65D0344B9C4224D8B0
:103940008EB3DFF8D49029786A7801F0030104F08F
:10395000FFF88246002855D1B8F1000F2CD1002E77
:1039600044D02846FFF764F90146384603F03AF898
:10397000044648E00768D5E79CF80500D5E70CF158
:103980000C05D5E79CF81480D5E7214B9C4203D861
:1039900066B9DFF88890D6E71E4B9C4230D846B90E
:1039A000DFF87C90CFE7DFF87C90CCE7DFF8789009
:1039B000C9E7DFF87890C6E7002211462846FFF7EE
:1039C00020F9034620B153B1002BC8D054461AE069
:1039D000002249462846FFF748F90346F3E700224C
:1039E00001212846FFF70DF90346EDE72846FFF7CA
:1039F0001FF902462146384603F034F8044602E037
:103A0000002400E000242046BDE8F087A0860100E5
:103A1000801A060040420F0000127A0020B3810095
:103A2000002D310180841E0020BCBE0080F0FA020F
:103A30002DE9F04383B080460E4617469946002490
:103A400016E099F802206B789A4201D0002325E015
:103A5000012323E017238DF80430735C8DF80530C3
:103A60006B788DF8063001A8FFF710FBC8B1013460
:103A7000BC421AD2A10006EB840595F802C0C445E9
:103A8000F5D1B9F1000FE5D099F80030172BE1D14D
:103A900099F80120735C9A42D3D00023002BE6D022
:103AA00004E001A8FFF736FB00E00025284603B03C
:103AB000BDE8F083014B1878704700BF56AD010890
:103AC00008B5124B43F82010114B43F82020002377
:103AD0001A4601E00133DBB2082B08D80B4850F836
:103AE00023000028F6D0012A07D00132F2E72AB9D4
:103AF00001B101BE074801F0AFF808BD012AFCD1B1
:103B00000029FAD0034801F09BF8F6E77CAD0108E4
:103B100058AD01081023000800F00600042807D063
:103B2000062807D0022801D00020704701207047E6
:103B300002207047032070478278931EDBB2012B6E
:103B40000FD90023012A10D0032A0CD0002202F042
:103B5000FF0102B102210B43027C42B9012018434C
:103B600070470423EEE70122F1E70122EFE700208E
:103B7000F5E700002DE9F84380460F4691461E46C2
:103B80000024032C13D80B4B53F8242033469208FF
:103B9000094D55F824104046FFF74AFF386010B928
:103BA0000134E4B2EDE789F80040002000E003486A
:103BB000BDE8F8834473011034730110081802043F
:103BC00008B5C37FA3B943189B7AFF2B10D00844D4
:103BD000817B09B982F00102D908772B09D80748FF
:103BE0000068806900EBC11003F0070101F016FDC9
:103BF00008BD024909688869F6E700BF40AE0108C0
:103C00002DE9F04383B0FFF777FE48B1044605463F
:103C100055F8240B294603F01BFE94F8603013B9C5
:103C200003B0BDE8F0832946206803F05DFD10F085
:103C3000010FF5D1A16D51B10223A4F84C3000223F
:103C4000A265E36D2068009503F0C4FCE8E7276DEA
:103C500057B30123A4F84C30666D9E421FD9013E34
:103C6000A37F082B18D84FF0010807EB080906FBC3
:103C700008F294F84E1048460EF01AFAB044236D3C
:103C800043442365012363652068009533463A4623
:103C9000494603F09FFCC3E74FF00208E5E704F153
:103CA0004E0900232365EFE70022A4F84C2084F896
:103CB0006020A17C2046FFF783FFB1E700B583B009
:103CC0000B4650F8241B00910190022B05D0042BC9
:103CD0000BD0012003B05DF804FB1146684603F0E9
:103CE00005FDB0FA80F04009F4E71146684603F09C
:103CF0006FFDB0FA80F04009ECE700002DE9F04FCD
:103D000083B00C4690460546F0B1287D697D00F0F1
:103D1000030003F09BFF04F07DFE0646EB7FABBB88
:103D20004FF0000ACDF804A04FF0FF3B0427102FFE
:103D300028D804FB07F9B14508D9042F06D12B4C2C
:103D4000204603B0BDE8F08F01BEDEE7B14511D8D3
:103D500004F060FE00EB5900B0FBF9F0B6FBF0F3A5
:103D600099450AD9A9EB03039B4503D943B1824680
:103D700001979B460137FFB2D9E7A3EB0903F3E7AD
:103D800082460197019B88F800301BE007EE904ABD
:103D9000F8EE677AF7EE006A86EEA77ADFED147A1E
:103DA00067EE277A9FED137A77EEC77ADFED126A16
:103DB00086EEA77ABCEEC77A17EE103A834213D884
:103DC0004FF0010A287D0AF1FF32697D00F00300FF
:103DD00003F0B0FD04460028B2D1287D697D00F0D3
:103DE000030003F0F1FEABE7004CA9E70118020461
:103DF0000024F448CC28163D001B374A2DE9F04F2B
:103E000083B0984600238DF80730FF2900F0AE807C
:103E100005460E461746B0F84C309BB213B9002445
:103E2000A14616E0DFF854A1504603B0BDE8F08F7C
:103E30008DF807404FF0000A25E0B7FA87F35B09D9
:103E4000062201213046FEF7BDFF824616E001340E
:103E5000E4B2032C15D82A19917AB1420CBF4FF065
:103E600001094FF00009E3D0EA7F002AEFD1FF29D2
:103E7000EDD1B8F1000FE0D14FF0000A8DF8074006
:103E800001E0DFF8F8A0B9F1000F01D1EB7F53BBDF
:103E9000BAF1000FC8D1B9F1000F03D19DF8073076
:103EA0002B449E729DF80720012F14BF0027012785
:103EB000AB189F732968012393401B0203F47063BE
:103EC000032A00D901BE002F4CD10A6A22EA03035B
:103ED0000B62EB7F002BA7D100229DF8071028462C
:103EE000FFF76EFEA0E7002300932C1D23460DF183
:103EF000070269463046FFF73DFE83460028C7D1DA
:103F0000287AFF2819D023460D221A49FFF790FD81
:103F1000009A002ABCD09DF807302B449B7AFF2BD7
:103F2000B6D10378117899420ED00023002BAFD080
:103F3000B8F1000F10D1DA46ADE723460D220E4945
:103F4000E879FFF775FDE3E741785378994201D0AE
:103F50000023EBE70123E9E70821104600F037FFD3
:103F6000824695E70A6A13430B62B2E7DFF80CA0BA
:103F70005AE700BF04710110D07001100818020444
:103F800070B50546FFF7B8FC044690F848602A462D
:103F90000421084800F001FF00EA060111F0060FB5
:103FA00003D0236D2BB9A36D1BB911B1636EA06E45
:103FB000984770BD5473011038B5044603686BB15F
:103FC000002211464079FFF77BFD0021206803F0B5
:103FD000EFFA206803F0CCFA0023236023791E2B2C
:103FE00006D194F86C3003B394F82030ABBB38BDE5
:103FF00062791E4B33F91230002B0CDB03F01F01EA
:104000005B0901228A402033194941F82320BFF37C
:104010004F8FBFF36F8F94F86C3013B11E23237151
:10402000DFE7201DFFF776F8F8E7E01D00F0AAFEB5
:1040300004F1080000F0A6FE04F1090000F0A2FE61
:10404000002507E005F108002044023000F09AFE48
:104050000135EDB2032DF5D9C6E704F11400FEF7E2
:104060001BFE002384F82030C1E700BFEC72011072
:1040700000E100E000284DD0F0B58FB00D460446B9
:1040800090F8203013B924480FB0F0BD064656F81A
:10409000240B314603F08CFA0DF1370229462046F5
:1040A000FFF72CFE38B9E37F2BB994F821209DF857
:1040B00037309A4207D10028E6D12268136843F0CE
:1040C00000431360E0E76D46144F0FCF0FC50FCFCD
:1040D0000FC50FCF0FC53B682B60206803F048FA6F
:1040E000E37F83F001038DF8003094F822308DF8DF
:1040F0001030237F8DF80230A37F029303939DF845
:104100003730019384F8213032466946206803F045
:104110000BF9D0E702487047011802040073011040
:1041200000180204024688B113688BB1FF2924D01D
:10413000B2F84C309BB26BB90023032B1BD8D018BC
:10414000807A884208D00133DBB2F6E701BEEBE7A4
:1041500001BEEBE70A48704710B41468216A21F0E9
:104160004061980600F04060014321629374002092
:104170005DF8044B7047024870470148704700BF24
:10418000091802042DE9F04F99B00D4604460028A5
:1041900040D0002D40D06B68002B3FD07022002112
:1041A00020460DF085FF2B68B3F1000C18BF4FF0CF
:1041B000010C84F86CC00BAE6F680FCF0FC60FCF29
:1041C0000FC60FCF0FC63B683360BCF1000F14D091
:1041D0009DF82D30002B40F05D82002940F05F8279
:1041E000169B002B40F05D82179B002B40F05B82FA
:1041F0000D9A0E9B9A4240F0588204238DF82B3082
:104200000023A4F84C301E222271FF22E271227298
:1042100062720CE001BEBCE701BEBCE701BEBDE7B7
:10422000E218FF219172002191730133DBB2032B5D
:10423000F6D9FF2384F84E300026A6749DF82CA0F2
:10424000BAFA8AF252092B7B009395F8119095F8EF
:1042500012B0032E07D8AB1993F80D80B8F1FF0FF9
:1042600004D10136F5E700264FF0FF08BAF1000F40
:104270000FD1009BFF2B00F01A82B8F1FF0F00F066
:104280001882B9F1FF0F0FD1BBF1FF0F0CD1A64F70
:1042900001E2BBF1FF0F03D0009BFF2B00F00B826C
:1042A000B9F1FF0F00F00381E277002309938DF845
:1042B0002330BAF1000F40F000812B680D229B499A
:1042C0004846FFF7B5FB01902B680D2298495846E8
:1042D000FFF7AEFB02902B680B2296490098FFF780
:1042E000A7FB03902B680DF1230209A94046FFF7B5
:1042F00041FC07460623059308230493B9F1FF0FF9
:1043000000F0F680019B002B00F0D781B9F1FF0F80
:104310000CD00199002900F0D2811A7809789142D5
:1043200000F0E8800022002A00F0CB81BBF1FF0FF3
:104330000CD0029A002A00F0C681197812789142B6
:1043400000F0E1800022002A00F0BF81009AFF2ADD
:104350000CD0039A002A00F0BA81197812789142A1
:1043600000F0DA800022002A00F0B381BAF1000FD9
:104370000FD1B8F1FF0F0CD0099A002A00F0AB81E1
:1043800018781178884200F0E7800022002A00F0B7
:10439000A48117228DF820201A788DF821205B78CF
:1043A0008DF8223094F86C30002B00F0DD80D5F8C9
:1043B00000A017B9002B00F0DA8057B9BAF8002036
:1043C0009AF80230A280A37162795B4B53F82230D5
:1043D000236057B9B9F1FF0F07D094F86C30002B68
:1043E00000F0CA800FB984F8089057B9BBF1FF0FED
:1043F00007D094F86C30002B00F0C4800FB984F81B
:1044000007B057B9009BFF2B07D094F86C30002BF6
:1044100000F0BE800FB9009B63721FB9B8F1FF0FA7
:1044200040F0BC8097B9AA68002A00F0C68004F169
:10443000140392E8030083E80300002384F820308B
:10444000237D023BDBB2012B40F2DB80002F00F02A
:10445000C080002F00F0D7801FB9B8F1FF0F40F0E7
:10446000F880002F40F0128100236366A366A364E6
:104470006379324D35F91330ADF8183005230793C1
:104480002F4906A804F042FB637935F91330002B5D
:1044900007DB03F01F015B0901228A40294941F82B
:1044A00023202268136843F000431360F3E0BBF15C
:1044B000FF0F7FF4F9AE1C4FEDE02B680D2222496F
:1044C0004846FFF7B5FA01902B680D221F49584660
:1044D000FFF7AEFA02902B680B221D490098FFF7F8
:1044E000A7FA03900823059306230493002705E702
:1044F000029B08E75A7801994978914201D000223D
:1045000011E701220FE75978029A5278914201D0BF
:10451000002218E7012216E75978039A527891424F
:1045200018D000221FE700BF051802040471011013
:10453000D0700110A4700110C8720110EC7201104B
:10454000013C001000E100E0707001103C700110AF
:1045500010700110012206E759785278914201D07B
:10456000002213E7012211E70DF1200A21E750464E
:10457000FEF78CFD074620E70499019800F027FC20
:1045800007462FE70599029800F021FC074635E71A
:104590000499039800F01BFC07463BE76B689A6997
:1045A000F24094F86C3083F0010302F001024146BE
:1045B0002046FFF723FC074634E701231A46211D56
:1045C00004F1140000F0C8FC0746012384F82030F1
:1045D0003CE7217D627D01F00301607903F0B8FAC8
:1045E000074600287FF435AF94F82030002B3FF4C5
:1045F00030AF0DF12B023A492046FFF77FFB07460B
:1046000027E7384F25E7384A21466079FFF758FAFF
:1046100094F86C302BB994F8203013B19DF82B30FE
:104620000C930C9B84F821300E9BA3779DF83C30B3
:1046300084F822309DF82E3023770BA8FFF77CFA00
:104640006077224652F8240B0BA902F06DFE074654
:1046500002E741462046FFF765FDA8B90136032E63
:1046600010D8AB19597BFF29F7D06B689A69F240D3
:1046700094F86C3083F0010302F001022046FFF74A
:10468000BDFBEAE70746ECE60746EAE62046FFF709
:1046900093FC00E0154F384619B0BDE8F08F134F7A
:1046A000F9E7124FF7E7114FF5E7104FF3E7104F17
:1046B000F1E70F4FEFE70E4FEDE70E4FEBE70D4F32
:1046C000E9E70C4FE7E70B4FE5E70A4FE3E7094F50
:1046D000E1E7084FDFE7074FDDE7064FDBE700BF05
:1046E000A086010003180204BD3C00100A18020451
:1046F00005180204071802042DE9F04393B00E4692
:1047000015461F469DF870909DF874E0804600287D
:1047100041D00DF1140C214C0FCCACE80F000FCCA4
:10472000ACE80F000FCCACE80F002368CCF80030E9
:104730009DF8783083F001038DF814308EF001037A
:1047400003F001038DF824307046FFF7E5F98DF88A
:104750001600CDF81C90CDF820900023009305ABF7
:1047600001931B9B02938DF80C709DF868308DF8B7
:104770000D30FF238DF80E308DF80F308DF810308E
:104780008DF811608DF8125069464046FFF7FAFC2B
:1047900013B0BDE8F08301BEBBE700BF007301109A
:1047A0002DE9F04182B0DDF82080002800F08B80F8
:1047B0000F4615461E460446FFF77CF9002840F0D8
:1047C0008480E37F13B1227AFF2A23D013B9E279E0
:1047D000FF2A22D013B1E279FF2A21D013B9237A1C
:1047E000FF2B1FD00122A17C2046FFF7E9F901230E
:1047F00084F86030454532D9B8F1000F28D0032342
:10480000A4F84C3000232365A37F082B0CD94FEA72
:1048100048030AE04FF00008DCE74FF00008D9E752
:104820000025DFE70025DDE743463B44A365A5EB14
:104830000805E565454654F8240B00942B4632469E
:10484000394602F0C7FE002841D102B0BDE8F08130
:104850000223A4F84C3000262665A665EBE7454503
:104860002AD285B10323A4F84C300023A365A37F8B
:10487000082B06D96B0033442365A8EB0503636559
:10488000D9E72B46F7E70123A4F84C300023A365B2
:10489000A37F082B0CD80123B8F1010F0AD93344A8
:1048A000236508F1FF33636504F14E070125C2E774
:1048B0000223F1E70023F3E70323A4F84C3000239D
:1048C0002365A365B7E70348BFE70348BDE703488F
:1048D000BBE700BF00180204031902040218020417
:1048E000F8B1F0B583B00F4616461D460446FFF7F3
:1048F000E1F8C0B99DF8243084F84E30089B00934D
:104900002B46324639462046FFF74AFF20B9B4F815
:104910004C309BB2002BFAD1FF2384F84E3003B009
:10492000F0BD024870470248F9E700BF00180204D2
:104930000319020470B504460E461546FDF7A9FF9B
:104940006666A566FDF7A9FF024B23640023A364F6
:1049500070BD00BF813F00108BB1836C194381642F
:1049600041790D4B33F91130002B0DDB5201D2B2DE
:1049700003F1604303F5614383F800237047836CC0
:1049800023EA01018164EBE703F00F035201D2B285
:104990000249CA54704700BFEC72011014ED00E0E8
:1049A0002DE9F0410446884616461F4604E00122E0
:1049B00088F80020E2B1E46840F28975AC4217D073
:1049C0002568002DF7D094F804C036EA0C03F2D124
:1049D000637937EA0303EED0A26839463046A84728
:1049E0000028E4D1012F01D00122E1E70022DFE716
:1049F0002046BDE8F08170B504460D46164600E03D
:104A0000E468AC420FD02368002BF9D0217936EA54
:104A10000102F5D1627912F0020FF1D1A2680221F0
:104A200030469847ECE770BD38B505460C46FDF7B3
:104A300030FFE36813B1FDF730FF38BD2B68E3604A
:104A40002C60F8E738B504460D46FDF722FF01E07B
:104A500003F10C04236840F28972934205D0AB4203
:104A6000F6D1EB6823600023EB60FDF716FF38BD3D
:104A70002DE9F04182B00D4600F011FA0446012301
:104A80008DF80730022806D0082804D01A4B1E687B
:104A90001A4B1F6803E0184B1F68184B1E6823460B
:104AA0002A460DF107013846FFF77AFF80469DF848
:104AB000073063B930469DF807300BB9012C0ED092
:104AC0009DF80730B3B1002002B0BDE8F081234665
:104AD0002A460DF107013046FFF762FFEBE72A4651
:104AE00001463046FFF787FF2A4641463846FFF722
:104AF00082FFE5E70248E7E72423000820230008B7
:104B0000FF00420038B50C4610212046FFF7B0FFE9
:104B10000546042C01D0284638BD002003F06AFF6A
:104B20000349A1FB0031890C012004F0E7F8F2E70A
:104B300083DE1B4338B50C4608212046FFF798FF5B
:104B40000546082C01D0284638BD002003F052FF4E
:104B50000349A1FB0031890C002004F0CFF8F2E7F3
:104B600083DE1B4308B508460421FFF781FF08BD1B
:104B700010B50446FFF77CFF042C02D0082C17D098
:104B800010BD4FF0E0231B6913F0010F04D00E4B52
:104B90001B7813B1012300E000230C4A1370002B93
:104BA000EED04FF0E022136923F001031361E7E731
:104BB000064B1B78002BE3D04FF0E022136943F043
:104BC00001031361DCE700BFA2AD01083CAE0108A0
:104BD00008B50846012902D1044B1B881BB90221E4
:104BE000FFF7C6FF08BD0248FCE700BFA0AD010803
:104BF000FF00420008B508460121FFF7B9FF08BDD4
:104C000038B584468E4615460C4C0FCCCCF80000C7
:104C1000CCF80410CCF80820CCF80C3007CCCCF839
:104C20001000CCF81410CCF81820CCF800508CF8F8
:104C300004E0604604F0E4F938BD00BF647301107D
:104C400008B5014618B10348FFF7EEFE08BD01BEE6
:104C5000F9E700BF2423000808B5014618B103484E
:104C6000FFF7F0FE08BD01BEF9E700BF24230008EE
:104C700008B504F07DFC38B9164A00211648FFF744
:104C8000BFFF20B9154808BD04F004FAF4E7144A40
:104C900001211448FFF7B4FF08B91048F3E7124A9E
:104CA00002211248FFF7ACFF08B90C48EBE7104AA5
:104CB00003211048FFF7A4FF08B90848E3E70E4AAC
:104CC00004210E48FFF79CFF08B10020DBE70348F2
:104CD000D9E700BFF54B00101CAE01080119020412
:104CE000D14B0010ACAD0108654B0010C8AD0108F8
:104CF000354B001000AE0108054B0010E4AD010873
:104D0000024600B101BE024B43F82210704700BFBB
:104D100038AE0108F8B506460F461546FEF7CAFE3E
:104D2000A8B93368D3F840332C4602E03368D3F88F
:104D30004033B3F1FF3F07D1002DF7D04CB1012034
:104D400003F018FF013CF1E73B700020F8BD02487A
:104D5000FCE70248FAE700BF03190204021E02043E
:104D600038B504460D46FEF7A5FE28B1044806E016
:104D70002946206801F063F80028F9D0002038BDEA
:104D80000319020410B504460078FF2800D110BDB5
:104D900000F051F8FF232370F9E730B505460123F1
:104DA000002001E00133DBB21C468B420CD203F140
:104DB000FF3E4FF0010C0CFA0EFC1CEA020FF1D082
:104DC00055F824402043EDE700B9286830BD70B5A0
:104DD00084B004460D4683780B228DF80020DA0853
:104DE0008DF8012003F007038DF80230009BADF829
:104DF0000C301B0C8DF80E30039BADF808301B0CEB
:104E00008DF80A30029BADF804301B0C8DF806308B
:104E100001A8FEF73BF9064610B1304604B070BD5C
:104E200029462046FEF7A0FC06460028F5D001A83A
:104E3000FEF770F9F1E710B584B00446FEF7C4FC44
:104E400000B101BE0B238DF80030E3088DF801306E
:104E500004F007048DF80240009BADF80C301B0CE9
:104E60008DF80E30039BADF808301B0C8DF80A301E
:104E7000029BADF804301B0C8DF8063001A8FEF73C
:104E800049F904B010BD431E072B05D8DFE803F035
:104E9000060604060404040601BE01207047431EF2
:104EA000072B05D8DFE803F0060604060404040611
:104EB00001BE012070470000012807D002280DD054
:104EC00010B101BE00207047881A7047A1EB020C98
:104ED000114A02FB0CFC9CFBF1F0704738B5002333
:104EE000B1EB020C63EB03041CEB0C0044EB04027B
:104EF00010EB0C0044EB02024FEA421E4EEAD06E69
:104F00004501401942EB0E0E10EB0C000A4644EB33
:104F10000E010CF0B5FE38BD40420F00122817D824
:104F2000DFE800F00A180C0E1616161616161616DE
:104F30001612161016161400082070470420704729
:104F400001207047012070470520704705207047F9
:104F500001207047102070472DE9F04383B00446CC
:104F600016461F460B4691B119780539182933D8D2
:104F7000DFE801F02A3232323232320F323232324C
:104F80003232320F1C32323232323232230001BE20
:104F9000EAE71F4B93E8030002AB03E9030069460D
:104FA0002046FDF7F7FD03B0BDE8F083194B93E809
:104FB000030002AB03E90300F1E7174B93E803009A
:104FC00002AB03E90300EAE701BE1448EBE74FF048
:104FD00001090EE001BE0EE00025A9461048032D90
:104FE000E1D8104B13F805804645F0D0B9F1000F19
:104FF0000CD0002CEED0FDF79DFD02464146204628
:10500000FDF79CFD0028CED0002FCCD00135E6E77F
:10501000B8710110C0710110C871011002020204C0
:10502000020D020480730110014B1860704700BF2D
:1050300040AE01088446002800F0F080002900F00E
:10504000EF800B78032B00D901BE4B78032B00D9DE
:1050500001BE8B78032B00D901BE0B79032B00D93D
:1050600001BE8B79012B00D901BECB79012B00D970
:1050700001BECB78012B00D901BE4B79022B00D9A0
:1050800001BE0B7A032B00D901BE0B7803F003039A
:105090004A78920002F00C0213438A78120102F05F
:1050A000300213430A799201D2B213438A799206ED
:1050B00002F080621343CA79D20602F00062134301
:1050C000CA78120602F0807213434A79120702F07E
:1050D000405213430A7A43EA8273CCF80030CB681B
:1050E000CCF804300B69CCF808300B7A032B00F2B3
:1050F0009980DFE803F002072D73CB6ACCF80C30FF
:10510000002070474B6903F50063B3F5805F00D35F
:1051100001BE8B6903F50063B3F5805F00D301BE68
:10512000CB69013BFF2B00D901BE4B69C3F30B03D5
:1051300088693E4A02EA00321343CA69013A43EAE7
:105140000263CCF80C30CB6ACCF8103000207047EA
:105150004B6903F50063B3F5805F00D301BE8B6933
:1051600003F50063B3F5805F00D301BECB69013B5B
:10517000FF2B00D901BE0B6A03F50063B3F5805F16
:1051800000D301BE4B6A03F50063B3F5805F00D323
:1051900001BE8B6A013BFF2B00D901BE4B69C3F3F3
:1051A0000B028B69214800EA03331A43CB69013BA8
:1051B00042EA0362CCF80C200B6AC3F30B034A6A81
:1051C00000EA023003438A6A013A43EA0263CCF8F8
:1051D0001030CB6ACCF8143000207047144B1B6899
:1051E00093F82E301F2B1FD94B6903F50063B3F5DD
:1051F000805F00D301BECB69013BFF2B00D901BE0C
:105200004B69C3F30B03CA69013A43EA0263CCF862
:105210000C30CB6ACCF8103000207047054870473E
:1052200004487047034870470248704700F0FF0089
:1052300040AE010801004E0000287DD08446002ABF
:105240007CD01368002B7BD03F4B98425CD03F4B07
:105250001B6893F836308B4294BF00230123002B48
:1052600070D030B59368032B00D901BE1468364B5B
:105270009C4552D0354B1B6893F83630994234BF69
:105280000023012303B101BE304B1868B0F85E3033
:105290006344B0F8605005FB0133DC60B0F85E3069
:1052A000B0F86000634400FB01339868000C000410
:1052B00098601379002B39D0244B1B6893F8634016
:1052C000012303FA04F493682048006890F86250C0
:1052D000AB404FF0030E0EFA05FE03EA0E03234324
:1052E000147B2CB34FF000442343527B12B30424AD
:1052F000B0F85E209444B0F8602002FB01F1234333
:105300004CF80130002030BD104B1B6893F835304D
:105310008B4294BF00230123A1E70C4B1B6893F839
:105320003530994234BF00230123ABE70024CAE79C
:105330000024D9E70024DBE705487047044870479C
:1053400003487047024870470000284040AE0108FB
:1053500001004E00024638B113689B0F032B0AD898
:10536000DFE803F00406080601BEF5E7D1607047E8
:105370001161704751617047B0F1204F3CD018D88F
:1053800080283BD007D9B0F5807F3FD0244B98428E
:1053900009D024487047102832D0402801D1224833
:1053A000704700282ED170474FF4A40070471D4865
:1053B00070471E4B98422BD02DD31D4B98422CD8B2
:1053C000B0F1704F12D900F1805001380428EED8A6
:1053D00001A353F820F000BFA9530010AF530010F1
:1053E00009540010F1530010F55300100D48704798
:1053F0001048704710487047002070470F487047AA
:105400000F487047074870470E4870470448704778
:105410004FF4A0007047034870470248C3E700BF3D
:1054200006005200FF00520002005000090000A0D8
:10543000050000F002005200030052000500520077
:10544000010050000100520010B5104B1B6893F88A
:105450003330012B00D801BE0C4B1C68236AB4F812
:10546000BA201344D4F8BC20D358002B0BDB084BD4
:105470001868FFF781FF636801229A6063689B6880
:10548000002BFBD110BD0348FCE700BF40AE010874
:1054900044AE0108020050001A4B186028B10223E4
:1054A0000370FF23437000234380174B1B6893F85E
:1054B000502002B9704700B583B0B3F93A30ADF867
:1054C0000030002301931149684603F01FFBBDF92A
:1054D0000030002B07DB03F01F015B0901228A402B
:1054E0000B4941F82320084B1B6893F8513013B93E
:1054F00003B05DF804FB02220649012000F014FB12
:10550000F6E700BF54AE010840AE010819260008B6
:1055100000E100E0A926000808B50248FFF7BCFF3B
:1055200008BD00BF5829000810B5072900D901BEE1
:1055300032F01F0300D001BE164B1B689C69001B94
:10554000C0095B694FEA001C03EB0010032910D867
:1055500053F80C00C9004FF01F0E0EFA01FE20EAAE
:105560000E0002F01F0202FA01F1014343F80C1091
:1055700010BD04394368C9004FF01F0C0CFA01FC40
:1055800023EA0C0302F01F0202FA01F11943416001
:10559000EEE700BF40AE0108F8B507460D461446D9
:1055A0001E469DF81820072900D901BE34F00F03CC
:1055B00003D1012C01D0092C00D101BE012E00D94C
:1055C00001BE32F01F0300D001BE29463846FFF766
:1055D000ABFF3B680122AA4023EA020306F0010662
:1055E000AE401E433E60084B1B6893F88110CB59B8
:1055F000AD000F22AA4023EA020304F00F04AC40DE
:105600001C43CC51F8BD00BF40AE0108082900D9A9
:1056100001BE0069C84000F001007047072900D9A9
:1056200001BE012A00D901BE012303FA01F10AB922
:10563000416070478160704700B5072900D901BEFD
:1056400032F00F0303D1012A01D0092A00D101BE93
:1056500089000A4B1B6893F881E05EF800304FF038
:105660000F0C0CFA01FC23EA0C0302F00F028A4033
:105670001A434EF800205DF804FB00BF40AE01085D
:1056800000B5072900D901BE012A00D901BE0A4B85
:105690001B6893F882E05EF800304FF0010C0CFAC2
:1056A00001FC23EA0C0302F001028A401A434EF87F
:1056B00000205DF804FB00BF40AE0108082900D9B6
:1056C00001BE4369012303FA01F141614369704757
:1056D000082900D901BE012A00D901BE83694FF013
:1056E000010C0CFA01FC23EA0C0302F001028A40CF
:1056F0001A4382617047082900D901BEC069C840B9
:1057000000F001007047000000B5082900D901BE73
:10571000032A00D901BE4900094B1B6893F880E0B9
:105720005EF800304FF0030C0CFA01FC23EA0C0386
:1057300002F003028A401A434EF800205DF804FB91
:1057400040AE0108002800F0A280F8B50D461446CE
:105750000646002A00F09D80072900D901BE236873
:10576000012B00D901BE636833F00F0203D1012B76
:1057700001D0092B00D101BE237A33F01F0300D0E2
:1057800001BEE368032B00D901BE2369012B00D9B8
:1057900001BE6369012B00D901BE236A012B00D928
:1057A00001BE636A012B00D901BEA36A012B00D997
:1057B00001BEE36A032B00D901BE236B072B00D97E
:1057C00001BEE369032B00D901BEA369012B00D9F7
:1057D00001BE0121A9406A0002F1100C032303FA63
:1057E0000CF319432C4F3B6893F88300835923EA49
:1057F0000101A36903F00103AB400B43E26902F02E
:10580000030202FA0CF213438351626829463046C0
:10581000FFF712FF227A29463046FFF785FEE2683D
:1058200029463046FFF770FF226929463046FFF7C8
:105830004FFF626929463046FFF722FF3B6893F825
:105840008410705820F0FF00236A03F00103626A9D
:10585000520002F002021343A26A920002F0040214
:105860001343E26AD20002F018021343226B520182
:10587000D2B21343AA0002F47E72934003437350E2
:10588000226829463046FFF7C9FE0020F8BD0348CC
:1058900070470248FAE700BF40AE010801005A0015
:1058A000082900D901BE054B1B6893F880301858B1
:1058B0004900C84000F00300704700BF40AE010837
:1058C000084B1B68D3F8BC301B58002B07DA0B0CB5
:1058D0001B0403B101BE89B2416000207047024839
:1058E000704700BF40AE010801008A000368002B2A
:1058F00008DAC2600B0C1B0403B101BE89B28160DF
:10590000002070470048704701008A000A4651B1E4
:10591000074B1B68D3F8BC301B58002B05DAC36853
:1059200013600020704701BEF2E70248704700BFD5
:1059300040AE010801008A00034B1B6803B17047A9
:10594000014B1860FBE700BF68AE0108F0B4049D8E
:10595000234C2468002C40D0214C27682C2400FBC9
:1059600004F43819DEB23E51C3F3072444601B0C23
:1059700083601C4B1B6893F833309E4200D301BEFA
:10598000184B1B681C6AB3F8BA7007FB0644046125
:10599000446893F834309C4200D301BE114B1B681D
:1059A0001B6A803403EB441343618468260C36047D
:1059B00006B101BE260C360406B101BE1FFA84FCF6
:1059C0004CEA04449C60C26101620023836115B10A
:1059D000B5F900308381F0BC704701BEBCE700BF61
:1059E00068AE010840AE010830B58FB0044600280B
:1059F0004AD0A369072B00D901BEE36A002B45D02A
:105A0000236B002B44D00DF11C0C04F1140EBEE8E6
:105A10000F00ACE80F00DEF80030CCF800300DF1DC
:105A2000080CA646BEE80F00ACE80F00DEF8003018
:105A3000CCF80030174B1B681B8F079A1344ADF846
:105A40003030089B0D930CAD00950B9BA26AE16A68
:105A50000A98FFF77BFF00210091069B0A460598F4
:105A6000FFF774FF216B284603F050F8BDF9303082
:105A7000002B07DB03F01F015B0901228A40064966
:105A800041F823200FB030BD01BEB2E701BEB7E739
:105A900001BEB8E740AE010800E100E030B51546B0
:105AA000002A30D01D4A1268002A2ED01B4A1468E2
:105AB0004FF02C0C0CFB00420CFB014148684FF0EE
:105AC000010E0EFA00F04FEA004C50680EFA00FE8C
:105AD0001469E4B18869E0B92468002C1BDA2C88C9
:105AE0002C6044EA0C042C601469E56001248C618C
:105AF0004B6212694FEA1E431B0403B101BE1FFA39
:105B00008EF3936030BD01BECCE701BECEE7044802
:105B1000F8E70448F6E70348F4E700BF68AE010879
:105B200004028A0007028A000C4B1B687BB10B4BF6
:105B30001B684FF02C0C0CFB0030036A4BB1C3699F
:105B4000934208D9036A43F822100020704701BE2F
:105B5000EDE701BEF3E70248704700BF68AE0108F9
:105B60000A028A0070B582B000230193044628B36C
:105B700023692BB363692BB3236A2BB36369DD6895
:105B80002A0C0BD02A0C12041A601B6820691D4BCA
:105B90001B68D3F8BC301B58002B17DBADB24DB1DE
:105BA00063691D601B68636A3BB3984700236362A7
:105BB0000023A36163691B6802B070BD01BED7E713
:105BC00001BED7E701BED7E701BED7E701A9FFF7BE
:105BD0009DFE60B9019803681E0CDBB2E2699A422F
:105BE00006D9226A52F8233013B1984700E0002604
:105BF00031462069FFF764FED0E7A36A002BD7D0B7
:105C00009847D5E740AE010808B5064B1B683BB185
:105C1000044B1B682C2202FB0030FFF7A3FF08BDDA
:105C200001BEF5E768AE01081E4B1B6893F83330E0
:105C3000834233D970B50C46002931D00B6813F07C
:105C40001F0F01D0184870BD164B1B6893F83330F6
:105C5000984200D301BE134B1B681D6AB3F8BA30DB
:105C600003FB0055114E35602268D20800216068A0
:105C70000CF01EFA00212846FFF722FE22460021E2
:105C80003068FFF733FE08B10948DCE700213068CF
:105C9000FFF716FE0028D6D00548D4E70248704723
:105CA0000148D0E740AE010803018A006CAE01084C
:105CB00001018A0010B50B4614461AB1E4B1ABB924
:105CC0000E4810BD0029F9D10D4A126892F8332010
:105CD000904200D301BE0A4A11680A6AB1F8BA10AC
:105CE00001FB0020074A10601846EAE706490B60EE
:105CF0004C60FFF799FFE4E70048E2E703018A0000
:105D000040AE01086CAE01085C2900082DE9F041A5
:105D1000194B1B68DD682B6883422BD90C4646095A
:105D200000F01F00012303FA00F8B9B10027124B5D
:105D300018680368002B17DA6A6852F8263013EAED
:105D4000080F0FD023EA080342F82630002500216F
:105D5000FFF7B6FD54B12846BDE8F081FCF799FD88
:105D60000746E4E7054DF2E7054DF3E73846FCF753
:105D700094FDF0E7034DEEE76CAE010802018800E8
:105D80000301880004018A000B4B1B68DB681A685A
:105D900082420CD9410900F01F00012202FA00F0F2
:105DA0005B6853F82130034203D00448704704482D
:105DB00070470448704700BF6CAE010801018800BD
:105DC00004018A0000018800084B1B689B6CC340DB
:105DD00013F0010F00D101BE044B1B681B6910308A
:105DE0008002185800F00F00704700BF40AE010855
:105DF00010B4D0F8003313F0080305D000230DE0F1
:105E0000D0F84043CC5401339342F9D35DF8044BAE
:105E10007047D0F8404321F8134001339342F8D340
:105E2000F4E710B51446D0F80833C3F308039A42D8
:105E300000D31C462246FFF7DBFF204610BD036857
:105E400013F4006F0AD08022D0F80832C3F308039D
:105E5000934205D0C0F84012012070474022F3E77A
:105E60000020704710B4D0F8003213F0080305D0BA
:105E700000230DE0CC5CC0F8404201339342F9D3DB
:105E80005DF8044B704731F81340C0F840420133CD
:105E90009342F8D3F4E710B51446036813F4006F87
:105EA0000DD08023D0F80822C2F308029B1AA34227
:105EB00000D81C462246FFF7D5FF204610BD4023E0
:105EC000F0E702E0C0F84012013A002AFAD1704728
:105ED00010B51446036813F4006F0DD08023D0F87A
:105EE0000822C2F308029B1AA34200D81C4622468D
:105EF000FFF7E7FF204610BD4023F0E710B503464B
:105F0000486841F2010290423CD0D3F80802C0F345
:105F10000800D3F80822C2F3C0320244086B801A8A
:105F20004863086A10F0080F05D1C86A1044C862B7
:105F3000886A821A8A620A6A42F004020A620A6A5B
:105F400022F001020A620022C3F8882F1020D3F841
:105F50004C4F40F2011214420DD01A6822F0004258
:105F60001A6000229A66DA661A6842F000421A60E5
:105F70001B6840F040004FF080534B604B6C03B106
:105F8000984710BDD3F80823C2F308029AB10A6AF1
:105F900042F040020A620A781AB3D3F8042342F4AA
:105FA0008032C3F80423D3F8042322F48032C3F8E8
:105FB0000423D3F804230A6A42F020020A620A6A20
:105FC00022F010020A621A6E22F420421A6600229F
:105FD000C3F8C82F0122C3F8C02FD3F8C02F202048
:105FE000B5E7D3F84023E6E7D0F80C3F13F0020FF3
:105FF00017D00222C0F8002FD0F8002FD0F8002FC1
:1060000012F0040F23D04FF400108A6802438A6014
:106010004A68B2F5B81F04D00A7BDAB14FF4C01257
:106020004A6013F4807F03D08A6842F400028A60D9
:1060300013F0010F03D08A6842F480028A6040F2B4
:106040001112134202D04FF4C0134B6070474FF44B
:106050008010DAE74FF4B012E2E70023C0F8C83F3F
:10606000C0F8883F836E23B140F21713C0F8083F91
:10607000704740F21313C0F8083F182383664FF4AB
:10608000B8134B607047000010B5D0F80C2F036EAA
:1060900023F4807303660023C0F8C83FC0F8883F2C
:1060A000C0F8083F40F21713C0F8003FD0F8003F97
:1060B0008B6823F480338B604B7B43B38B69CB615C
:1060C00040F201131A4236D0036E9B0F032B2BD0E4
:1060D000036823F00043036000238366C3660368FC
:1060E00043F00043036003684FF080534B604A6CF9
:1060F00062B14B7B002B3BD04FF480208B6813F0B8
:10610000F87301D04FF400231843904710BD8C69F9
:10611000D0F80832C3F3080CD0F80832C3F3C03308
:106120006344E31ACB61CBE712F0040FD0D112F431
:10613000807FD9D0CCE70B7893B1D0F8043343F407
:106140008033C0F80433D0F8043323F48033C0F82C
:106150000433D0F804330123C0F8C03FD0F8C03F67
:106160000B7B13B1044B4B60C1E74FF08053FAE750
:106170004FF40030C2E700BF0000101003460029B2
:106180004EDB11F0C00F0CD0002181664FF0805122
:1061900051602E4840F21712C3F8002FD3F8003F89
:1061A000704711F4807F4CD111F0010F0ED0506870
:1061B0002749884201D0274833E0196E4FF08050BC
:1061C000506011F0804F3ED02248E3E711F0020CFE
:1061D00007D051681E4A914201D01F48DAE71F4894
:1061E000D8E711F0100004D04FF0805151606046A4
:1061F000D0E710B4546816498C4208D040F2171208
:10620000C3F8002FD3F8003F5DF8044B7047517B73
:1062100019B14FF488115160F0E74FF4A011FAE77B
:106220000F48196821F00041196000219966D9666C
:10623000196841F0004119601B684FF080535360AA
:1062400070470848EDE70348EBE700BF0820AA00C5
:10625000000013100620AA000520AA000420AA00AE
:106260000320AA000720AA0010B50446006800B960
:1062700010BD012002F096FC2368013B23600BB1A6
:106280000020F5E74FF00040F2E770B505460C46F8
:1062900091F8243073B9CB6A63B94B6C0BB1082009
:1062A0009847E36AB3FA83F35B0984F82430012347
:1062B000C5F8883F94F82430B3B163782BB12B68CC
:1062C00013F4006F0ED0802200E00122FF21284647
:1062D000FFF7FEFD236B03442363236A43F00803A7
:1062E000236270BD4022F1E7E26A012A10D9637887
:1062F000002B3AD0013AA16A2846FFF7CCFD236B68
:1063000003442363E36A1B1AE362A36A1844A0628E
:10631000D5F80832C3F30803802BE2D0E36A012BDF
:10632000DFD1FCF7B6FAA36A1B78C5F840324026E5
:10633000C5F8806FD5F8803FFCF7AFFA236B0133C7
:1063400023630023E362A36A0133A362C5F8886F65
:106350006378002BC5D0236A43F002032362636C89
:10636000002BBED004209847BBE70122C3E738B515
:106370000C464B68B3F5A81F05D005464B68B3F52E
:10638000A01F04D038BD4FF4C0134B60FAE74A6930
:10639000012A10D94B78002B2FD0013A21692846C9
:1063A000FFF779FDA3690344A36163691B1A636165
:1063B000236918442061D5F80832C3F30803802B01
